{
  "_format": "hh-sol-artifact-1",
  "contractName": "Faisaa",
  "sourceName": "contracts/FaisaaToken.sol",
  "abi": [
    {
      "inputs": [
        {
          "internalType": "address",
          "name": "account",
          "type": "address"
        },
        {
          "internalType": "address",
          "name": "minter_",
          "type": "address"
        },
        {
          "internalType": "uint256",
          "name": "mintingAllowedAfter_",
          "type": "uint256"
        }
      ],
      "payable": false,
      "stateMutability": "nonpayable",
      "type": "constructor"
    },
    {
      "anonymous": false,
      "inputs": [
        {
          "indexed": true,
          "internalType": "address",
          "name": "owner",
          "type": "address"
        },
        {
          "indexed": true,
          "internalType": "address",
          "name": "spender",
          "type": "address"
        },
        {
          "indexed": false,
          "internalType": "uint256",
          "name": "amount",
          "type": "uint256"
        }
      ],
      "name": "Approval",
      "type": "event"
    },
    {
      "anonymous": false,
      "inputs": [
        {
          "indexed": true,
          "internalType": "address",
          "name": "delegator",
          "type": "address"
        },
        {
          "indexed": true,
          "internalType": "address",
          "name": "fromDelegate",
          "type": "address"
        },
        {
          "indexed": true,
          "internalType": "address",
          "name": "toDelegate",
          "type": "address"
        }
      ],
      "name": "DelegateChanged",
      "type": "event"
    },
    {
      "anonymous": false,
      "inputs": [
        {
          "indexed": true,
          "internalType": "address",
          "name": "delegate",
          "type": "address"
        },
        {
          "indexed": false,
          "internalType": "uint256",
          "name": "previousBalance",
          "type": "uint256"
        },
        {
          "indexed": false,
          "internalType": "uint256",
          "name": "newBalance",
          "type": "uint256"
        }
      ],
      "name": "DelegateVotesChanged",
      "type": "event"
    },
    {
      "anonymous": false,
      "inputs": [
        {
          "indexed": false,
          "internalType": "address",
          "name": "minter",
          "type": "address"
        },
        {
          "indexed": false,
          "internalType": "address",
          "name": "newMinter",
          "type": "address"
        }
      ],
      "name": "MinterChanged",
      "type": "event"
    },
    {
      "anonymous": false,
      "inputs": [
        {
          "indexed": true,
          "internalType": "address",
          "name": "from",
          "type": "address"
        },
        {
          "indexed": true,
          "internalType": "address",
          "name": "to",
          "type": "address"
        },
        {
          "indexed": false,
          "internalType": "uint256",
          "name": "amount",
          "type": "uint256"
        }
      ],
      "name": "Transfer",
      "type": "event"
    },
    {
      "constant": true,
      "inputs": [],
      "name": "DELEGATION_TYPEHASH",
      "outputs": [
        {
          "internalType": "bytes32",
          "name": "",
          "type": "bytes32"
        }
      ],
      "payable": false,
      "stateMutability": "view",
      "type": "function"
    },
    {
      "constant": true,
      "inputs": [],
      "name": "DOMAIN_TYPEHASH",
      "outputs": [
        {
          "internalType": "bytes32",
          "name": "",
          "type": "bytes32"
        }
      ],
      "payable": false,
      "stateMutability": "view",
      "type": "function"
    },
    {
      "constant": true,
      "inputs": [],
      "name": "PERMIT_TYPEHASH",
      "outputs": [
        {
          "internalType": "bytes32",
          "name": "",
          "type": "bytes32"
        }
      ],
      "payable": false,
      "stateMutability": "view",
      "type": "function"
    },
    {
      "constant": true,
      "inputs": [
        {
          "internalType": "address",
          "name": "account",
          "type": "address"
        },
        {
          "internalType": "address",
          "name": "spender",
          "type": "address"
        }
      ],
      "name": "allowance",
      "outputs": [
        {
          "internalType": "uint256",
          "name": "",
          "type": "uint256"
        }
      ],
      "payable": false,
      "stateMutability": "view",
      "type": "function"
    },
    {
      "constant": false,
      "inputs": [
        {
          "internalType": "address",
          "name": "spender",
          "type": "address"
        },
        {
          "internalType": "uint256",
          "name": "rawAmount",
          "type": "uint256"
        }
      ],
      "name": "approve",
      "outputs": [
        {
          "internalType": "bool",
          "name": "",
          "type": "bool"
        }
      ],
      "payable": false,
      "stateMutability": "nonpayable",
      "type": "function"
    },
    {
      "constant": true,
      "inputs": [
        {
          "internalType": "address",
          "name": "account",
          "type": "address"
        }
      ],
      "name": "balanceOf",
      "outputs": [
        {
          "internalType": "uint256",
          "name": "",
          "type": "uint256"
        }
      ],
      "payable": false,
      "stateMutability": "view",
      "type": "function"
    },
    {
      "constant": true,
      "inputs": [
        {
          "internalType": "address",
          "name": "",
          "type": "address"
        },
        {
          "internalType": "uint32",
          "name": "",
          "type": "uint32"
        }
      ],
      "name": "checkpoints",
      "outputs": [
        {
          "internalType": "uint32",
          "name": "fromBlock",
          "type": "uint32"
        },
        {
          "internalType": "uint96",
          "name": "votes",
          "type": "uint96"
        }
      ],
      "payable": false,
      "stateMutability": "view",
      "type": "function"
    },
    {
      "constant": true,
      "inputs": [],
      "name": "decimals",
      "outputs": [
        {
          "internalType": "uint8",
          "name": "",
          "type": "uint8"
        }
      ],
      "payable": false,
      "stateMutability": "view",
      "type": "function"
    },
    {
      "constant": false,
      "inputs": [
        {
          "internalType": "address",
          "name": "delegatee",
          "type": "address"
        }
      ],
      "name": "delegate",
      "outputs": [],
      "payable": false,
      "stateMutability": "nonpayable",
      "type": "function"
    },
    {
      "constant": false,
      "inputs": [
        {
          "internalType": "address",
          "name": "delegatee",
          "type": "address"
        },
        {
          "internalType": "uint256",
          "name": "nonce",
          "type": "uint256"
        },
        {
          "internalType": "uint256",
          "name": "expiry",
          "type": "uint256"
        },
        {
          "internalType": "uint8",
          "name": "v",
          "type": "uint8"
        },
        {
          "internalType": "bytes32",
          "name": "r",
          "type": "bytes32"
        },
        {
          "internalType": "bytes32",
          "name": "s",
          "type": "bytes32"
        }
      ],
      "name": "delegateBySig",
      "outputs": [],
      "payable": false,
      "stateMutability": "nonpayable",
      "type": "function"
    },
    {
      "constant": true,
      "inputs": [
        {
          "internalType": "address",
          "name": "",
          "type": "address"
        }
      ],
      "name": "delegates",
      "outputs": [
        {
          "internalType": "address",
          "name": "",
          "type": "address"
        }
      ],
      "payable": false,
      "stateMutability": "view",
      "type": "function"
    },
    {
      "constant": true,
      "inputs": [
        {
          "internalType": "address",
          "name": "account",
          "type": "address"
        }
      ],
      "name": "getCurrentVotes",
      "outputs": [
        {
          "internalType": "uint96",
          "name": "",
          "type": "uint96"
        }
      ],
      "payable": false,
      "stateMutability": "view",
      "type": "function"
    },
    {
      "constant": true,
      "inputs": [
        {
          "internalType": "address",
          "name": "account",
          "type": "address"
        },
        {
          "internalType": "uint256",
          "name": "blockNumber",
          "type": "uint256"
        }
      ],
      "name": "getPriorVotes",
      "outputs": [
        {
          "internalType": "uint96",
          "name": "",
          "type": "uint96"
        }
      ],
      "payable": false,
      "stateMutability": "view",
      "type": "function"
    },
    {
      "constant": true,
      "inputs": [],
      "name": "minimumTimeBetweenMints",
      "outputs": [
        {
          "internalType": "uint32",
          "name": "",
          "type": "uint32"
        }
      ],
      "payable": false,
      "stateMutability": "view",
      "type": "function"
    },
    {
      "constant": false,
      "inputs": [
        {
          "internalType": "address",
          "name": "dst",
          "type": "address"
        },
        {
          "internalType": "uint256",
          "name": "rawAmount",
          "type": "uint256"
        }
      ],
      "name": "mint",
      "outputs": [],
      "payable": false,
      "stateMutability": "nonpayable",
      "type": "function"
    },
    {
      "constant": true,
      "inputs": [],
      "name": "mintCap",
      "outputs": [
        {
          "internalType": "uint8",
          "name": "",
          "type": "uint8"
        }
      ],
      "payable": false,
      "stateMutability": "view",
      "type": "function"
    },
    {
      "constant": true,
      "inputs": [],
      "name": "minter",
      "outputs": [
        {
          "internalType": "address",
          "name": "",
          "type": "address"
        }
      ],
      "payable": false,
      "stateMutability": "view",
      "type": "function"
    },
    {
      "constant": true,
      "inputs": [],
      "name": "mintingAllowedAfter",
      "outputs": [
        {
          "internalType": "uint256",
          "name": "",
          "type": "uint256"
        }
      ],
      "payable": false,
      "stateMutability": "view",
      "type": "function"
    },
    {
      "constant": true,
      "inputs": [],
      "name": "name",
      "outputs": [
        {
          "internalType": "string",
          "name": "",
          "type": "string"
        }
      ],
      "payable": false,
      "stateMutability": "view",
      "type": "function"
    },
    {
      "constant": true,
      "inputs": [
        {
          "internalType": "address",
          "name": "",
          "type": "address"
        }
      ],
      "name": "nonces",
      "outputs": [
        {
          "internalType": "uint256",
          "name": "",
          "type": "uint256"
        }
      ],
      "payable": false,
      "stateMutability": "view",
      "type": "function"
    },
    {
      "constant": true,
      "inputs": [
        {
          "internalType": "address",
          "name": "",
          "type": "address"
        }
      ],
      "name": "numCheckpoints",
      "outputs": [
        {
          "internalType": "uint32",
          "name": "",
          "type": "uint32"
        }
      ],
      "payable": false,
      "stateMutability": "view",
      "type": "function"
    },
    {
      "constant": false,
      "inputs": [
        {
          "internalType": "address",
          "name": "owner",
          "type": "address"
        },
        {
          "internalType": "address",
          "name": "spender",
          "type": "address"
        },
        {
          "internalType": "uint256",
          "name": "rawAmount",
          "type": "uint256"
        },
        {
          "internalType": "uint256",
          "name": "deadline",
          "type": "uint256"
        },
        {
          "internalType": "uint8",
          "name": "v",
          "type": "uint8"
        },
        {
          "internalType": "bytes32",
          "name": "r",
          "type": "bytes32"
        },
        {
          "internalType": "bytes32",
          "name": "s",
          "type": "bytes32"
        }
      ],
      "name": "permit",
      "outputs": [],
      "payable": false,
      "stateMutability": "nonpayable",
      "type": "function"
    },
    {
      "constant": false,
      "inputs": [
        {
          "internalType": "address",
          "name": "minter_",
          "type": "address"
        }
      ],
      "name": "setMinter",
      "outputs": [],
      "payable": false,
      "stateMutability": "nonpayable",
      "type": "function"
    },
    {
      "constant": true,
      "inputs": [],
      "name": "symbol",
      "outputs": [
        {
          "internalType": "string",
          "name": "",
          "type": "string"
        }
      ],
      "payable": false,
      "stateMutability": "view",
      "type": "function"
    },
    {
      "constant": true,
      "inputs": [],
      "name": "totalSupply",
      "outputs": [
        {
          "internalType": "uint256",
          "name": "",
          "type": "uint256"
        }
      ],
      "payable": false,
      "stateMutability": "view",
      "type": "function"
    },
    {
      "constant": false,
      "inputs": [
        {
          "internalType": "address",
          "name": "dst",
          "type": "address"
        },
        {
          "internalType": "uint256",
          "name": "rawAmount",
          "type": "uint256"
        }
      ],
      "name": "transfer",
      "outputs": [
        {
          "internalType": "bool",
          "name": "",
          "type": "bool"
        }
      ],
      "payable": false,
      "stateMutability": "nonpayable",
      "type": "function"
    },
    {
      "constant": false,
      "inputs": [
        {
          "internalType": "address",
          "name": "src",
          "type": "address"
        },
        {
          "internalType": "address",
          "name": "dst",
          "type": "address"
        },
        {
          "internalType": "uint256",
          "name": "rawAmount",
          "type": "uint256"
        }
      ],
      "name": "transferFrom",
      "outputs": [
        {
          "internalType": "bool",
          "name": "",
          "type": "bool"
        }
      ],
      "payable": false,
      "stateMutability": "nonpayable",
      "type": "function"
    }
  ],
  "bytecode": "0x60806040526a52b7d2dcc80cd2e400000060005534801561001f57600080fd5b506040516127963803806127968339818101604052606081101561004257600080fd5b5080516020820151604090920151909190428110156100925760405162461bcd60e51b815260040180806020018281038252603c81526020018061275a603c913960400191505060405180910390fd5b600080546001600160a01b03851680835260046020908152604080852080546001600160601b0319166001600160601b03909516949094179093558354835190815292519193927fddf252ad1be2c89b69c2b068fc378daa952ba7f163c4a11628f55a4df523b3ef929081900390910190a3600180546001600160a01b0319166001600160a01b038481169190911791829055604080516000815292909116602083015280517f3b0007eb941cf645526cbb3a4fdaecda9d28ce4843167d9263b536a1f1edc0f69281900390910190a160025550506125e4806101766000396000f3fe608060405234801561001057600080fd5b50600436106101b95760003560e01c80636fcfff45116100f9578063b4b5ea5711610097578063dd62ed3e11610071578063dd62ed3e14610579578063e7a324dc146105a7578063f1127ed8146105af578063fca3b5aa1461060e576101b9565b8063b4b5ea57146104bb578063c3cda520146104e1578063d505accf14610528576101b9565b8063782d6fe1116100d3578063782d6fe1146104145780637ecebe001461046157806395d89b4114610487578063a9059cbb1461048f576101b9565b80636fcfff45146103c057806370a08231146103e657806376c71ca11461040c576101b9565b806330adf81f1161016657806340c10f191161014057806340c10f1914610325578063587cde1e146103535780635c11d62f146103795780635c19a95c1461039a576101b9565b806330adf81f146102f757806330b36cef146102ff578063313ce56714610307576101b9565b806318160ddd1161019757806318160ddd1461029f57806320606b70146102b957806323b872dd146102c1576101b9565b806306fdde03146101be578063075461721461023b578063095ea7b31461025f575b600080fd5b6101c6610634565b6040805160208082528351818301528351919283929083019185019080838360005b838110156102005781810151838201526020016101e8565b50505050905090810190601f16801561022d5780820380516001836020036101000a031916815260200191505b509250505060405180910390f35b61024361066d565b604080516001600160a01b039092168252519081900360200190f35b61028b6004803603604081101561027557600080fd5b506001600160a01b03813516906020013561067c565b604080519115158252519081900360200190f35b6102a7610757565b60408051918252519081900360200190f35b6102a761075d565b61028b600480360360608110156102d757600080fd5b506001600160a01b03813581169160208101359091169060400135610778565b6102a76108e4565b6102a76108ff565b61030f610905565b6040805160ff9092168252519081900360200190f35b6103516004803603604081101561033b57600080fd5b506001600160a01b03813516906020013561090a565b005b6102436004803603602081101561036957600080fd5b50356001600160a01b0316610b57565b610381610b72565b6040805163ffffffff9092168252519081900360200190f35b610351600480360360208110156103b057600080fd5b50356001600160a01b0316610b7a565b610381600480360360208110156103d657600080fd5b50356001600160a01b0316610b87565b6102a7600480360360208110156103fc57600080fd5b50356001600160a01b0316610b9f565b61030f610bc8565b6104406004803603604081101561042a57600080fd5b506001600160a01b038135169060200135610bcd565b604080516bffffffffffffffffffffffff9092168252519081900360200190f35b6102a76004803603602081101561047757600080fd5b50356001600160a01b0316610e0c565b6101c6610e1e565b61028b600480360360408110156104a557600080fd5b506001600160a01b038135169060200135610e57565b610440600480360360208110156104d157600080fd5b50356001600160a01b0316610e93565b610351600480360360c08110156104f757600080fd5b506001600160a01b038135169060208101359060408101359060ff6060820135169060808101359060a00135610f0a565b610351600480360360e081101561053e57600080fd5b506001600160a01b03813581169160208101359091169060408101359060608101359060ff6080820135169060a08101359060c0013561121f565b6102a76004803603604081101561058f57600080fd5b506001600160a01b0381358116916020013516611692565b6102a76116cb565b6105e1600480360360408110156105c557600080fd5b5080356001600160a01b0316906020013563ffffffff166116e6565b6040805163ffffffff90931683526bffffffffffffffffffffffff90911660208301528051918290030190f35b6103516004803603602081101561062457600080fd5b50356001600160a01b0316611721565b6040518060400160405280600681526020017f466169736161000000000000000000000000000000000000000000000000000081525081565b6001546001600160a01b031681565b60008060001983141561069257506000196106b7565b6106b48360405180606001604052806027815260200161213b602791396117ec565b90505b3360008181526003602090815260408083206001600160a01b0389168085529083529281902080547fffffffffffffffffffffffffffffffffffffffff000000000000000000000000166bffffffffffffffffffffffff8716908117909155815190815290519293927f8c5be1e5ebec7d5bd14f71427d1e84f3dd0314c0f7b2291e5b200ac8c7c3b925929181900390910190a360019150505b92915050565b60005481565b60405180604361234c82396043019050604051809103902081565b6001600160a01b03831660009081526003602090815260408083203380855290835281842054825160608101909352602780845291936bffffffffffffffffffffffff9091169285926107d5928892919061213b908301396117ec565b9050866001600160a01b0316836001600160a01b03161415801561080757506bffffffffffffffffffffffff82811614155b156108cc57600061083183836040518060600160405280603f815260200161225c603f913961188f565b6001600160a01b038981166000818152600360209081526040808320948a168084529482529182902080547fffffffffffffffffffffffffffffffffffffffff000000000000000000000000166bffffffffffffffffffffffff871690811790915582519081529151949550929391927f8c5be1e5ebec7d5bd14f71427d1e84f3dd0314c0f7b2291e5b200ac8c7c3b92592918290030190a3505b6108d7878783611906565b5060019695505050505050565b60405180605261229b82396052019050604051809103902081565b60025481565b601281565b6001546001600160a01b031633146109535760405162461bcd60e51b81526004018080602001828103825260268152602001806124d66026913960400191505060405180910390fd5b6002544210156109945760405162461bcd60e51b815260040180806020018281038252602581526020018061219a6025913960400191505060405180910390fd5b6001600160a01b0382166109d95760405162461bcd60e51b81526004018080602001828103825260318152602001806120b16031913960400191505060405180910390fd5b6109e7426301e13380611b25565b6002819055506000610a118260405180606001604052806024815260200161238f602491396117ec565b9050610a4e610a30600054836bffffffffffffffffffffffff16611b25565b6040518060600160405280602981526020016123b3602991396117ec565b6bffffffffffffffffffffffff90811660009081556001600160a01b038516815260046020908152604091829020548251606081019093526027808452610aa594919091169285929091906120e290830139611b7d565b6001600160a01b038416600081815260046020908152604080832080547fffffffffffffffffffffffffffffffffffffffff000000000000000000000000166bffffffffffffffffffffffff9687161790558051948616855251929391927fddf252ad1be2c89b69c2b068fc378daa952ba7f163c4a11628f55a4df523b3ef9281900390910190a36001600160a01b03808416600090815260056020526040812054610b52921683611bec565b505050565b6005602052600090815260409020546001600160a01b031681565b6301e1338081565b610b843382611d8f565b50565b60076020526000908152604090205463ffffffff1681565b6001600160a01b03166000908152600460205260409020546bffffffffffffffffffffffff1690565b600281565b6000438210610c0d5760405162461bcd60e51b81526004018080602001828103825260298152602001806124fc6029913960400191505060405180910390fd5b6001600160a01b03831660009081526007602052604090205463ffffffff1680610c3b576000915050610751565b6001600160a01b038416600090815260066020908152604080832063ffffffff600019860181168552925290912054168310610cbd576001600160a01b03841660009081526006602090815260408083206000199490940163ffffffff168352929052205464010000000090046bffffffffffffffffffffffff169050610751565b6001600160a01b038416600090815260066020908152604080832083805290915290205463ffffffff16831015610cf8576000915050610751565b600060001982015b8163ffffffff168163ffffffff161115610dc157600282820363ffffffff16048103610d2a612099565b506001600160a01b038716600090815260066020908152604080832063ffffffff8581168552908352928190208151808301909252549283168082526401000000009093046bffffffffffffffffffffffff169181019190915290871415610d9c576020015194506107519350505050565b805163ffffffff16871115610db357819350610dba565b6001820392505b5050610d00565b506001600160a01b038516600090815260066020908152604080832063ffffffff909416835292905220546bffffffffffffffffffffffff6401000000009091041691505092915050565b60086020526000908152604090205481565b6040518060400160405280600681526020017f464149534141000000000000000000000000000000000000000000000000000081525081565b600080610e7c8360405180606001604052806028815260200161248a602891396117ec565b9050610e89338583611906565b5060019392505050565b6001600160a01b03811660009081526007602052604081205463ffffffff1680610ebe576000610f03565b6001600160a01b0383166000908152600660209081526040808320600019850163ffffffff16845290915290205464010000000090046bffffffffffffffffffffffff165b9392505050565b6000604051808061234c6043913960408051918290036043018220828201909152600682527f466169736161000000000000000000000000000000000000000000000000000060209092019190915290507f9869eadf408163ba154b1c0ee82ba4780d5d47224d67622ac848d92c700ab76d610f84611e36565b3060405160200180858152602001848152602001838152602001826001600160a01b03166001600160a01b0316815260200194505050505060405160208183030381529060405280519060200120905060006040518080612525603a91396040805191829003603a0182206020808401919091526001600160a01b038c1683830152606083018b905260808084018b90528251808503909101815260a0840183528051908201207f190100000000000000000000000000000000000000000000000000000000000060c085015260c2840187905260e2808501829052835180860390910181526101028501808552815191840191909120600091829052610122860180865281905260ff8c1661014287015261016286018b905261018286018a9052935191965092945091926001926101a280830193927fffffffffffffffffffffffffffffffffffffffffffffffffffffffffffffffe08301929081900390910190855afa1580156110fb573d6000803e3d6000fd5b50506040517fffffffffffffffffffffffffffffffffffffffffffffffffffffffffffffffe001519150506001600160a01b03811661116b5760405162461bcd60e51b815260040180806020018281038252602881526020018061255f6028913960400191505060405180910390fd5b6001600160a01b038116600090815260086020526040902080546001810190915589146111c95760405162461bcd60e51b81526004018080602001828103825260248152602001806124b26024913960400191505060405180910390fd5b874211156112085760405162461bcd60e51b81526004018080602001828103825260288152602001806123dc6028913960400191505060405180910390fd5b611212818b611d8f565b505050505b505050505050565b60006000198614156112345750600019611259565b61125686604051806060016040528060268152602001612404602691396117ec565b90505b6000604051808061234c6043913960408051918290036043018220828201909152600682527f466169736161000000000000000000000000000000000000000000000000000060209092019190915290507f9869eadf408163ba154b1c0ee82ba4780d5d47224d67622ac848d92c700ab76d6112d3611e36565b3060405160200180858152602001848152602001838152602001826001600160a01b03166001600160a01b031681526020019450505050506040516020818303038152906040528051906020012090506000604051808061229b60529139605201905060405180910390208a8a8a600860008f6001600160a01b03166001600160a01b031681526020019081526020016000206000815480929190600101919050558b60405160200180878152602001866001600160a01b03166001600160a01b03168152602001856001600160a01b03166001600160a01b0316815260200184815260200183815260200182815260200196505050505050506040516020818303038152906040528051906020012090506000828260405160200180807f190100000000000000000000000000000000000000000000000000000000000081525060020183815260200182815260200192505050604051602081830303815290604052805190602001209050600060018289898960405160008152602001604052604051808581526020018460ff1660ff1681526020018381526020018281526020019450505050506020604051602081039080840390855afa15801561149f573d6000803e3d6000fd5b50506040517fffffffffffffffffffffffffffffffffffffffffffffffffffffffffffffffe001519150506001600160a01b03811661150f5760405162461bcd60e51b815260040180806020018281038252602181526020018061232b6021913960400191505060405180910390fd5b8b6001600160a01b0316816001600160a01b031614611575576040805162461bcd60e51b815260206004820152601c60248201527f4661697361613a3a7065726d69743a20756e617574686f72697a656400000000604482015290519081900360640190fd5b884211156115b45760405162461bcd60e51b81526004018080602001828103825260218152602001806121fb6021913960400191505060405180910390fd5b84600360008e6001600160a01b03166001600160a01b0316815260200190815260200160002060008d6001600160a01b03166001600160a01b0316815260200190815260200160002060006101000a8154816bffffffffffffffffffffffff02191690836bffffffffffffffffffffffff1602179055508a6001600160a01b03168c6001600160a01b03167f8c5be1e5ebec7d5bd14f71427d1e84f3dd0314c0f7b2291e5b200ac8c7c3b9258760405180826bffffffffffffffffffffffff16815260200191505060405180910390a3505050505050505050505050565b6001600160a01b0391821660009081526003602090815260408083209390941682529190915220546bffffffffffffffffffffffff1690565b60405180603a6125258239603a019050604051809103902081565b600660209081526000928352604080842090915290825290205463ffffffff81169064010000000090046bffffffffffffffffffffffff1682565b6001546001600160a01b0316331461176a5760405162461bcd60e51b815260040180806020018281038252604081526020018061221c6040913960400191505060405180910390fd5b600154604080516001600160a01b039283168152918316602083015280517f3b0007eb941cf645526cbb3a4fdaecda9d28ce4843167d9263b536a1f1edc0f69281900390910190a1600180547fffffffffffffffffffffffff0000000000000000000000000000000000000000166001600160a01b0392909216919091179055565b6000816c0100000000000000000000000084106118875760405162461bcd60e51b81526004018080602001828103825283818151815260200191508051906020019080838360005b8381101561184c578181015183820152602001611834565b50505050905090810190601f1680156118795780820380516001836020036101000a031916815260200191505b509250505060405180910390fd5b509192915050565b6000836bffffffffffffffffffffffff16836bffffffffffffffffffffffff16111582906118fe5760405162461bcd60e51b815260206004820181815283516024840152835190928392604490910191908501908083836000831561184c578181015183820152602001611834565b505050900390565b6001600160a01b03831661194b5760405162461bcd60e51b815260040180806020018281038252603e8152602001806122ed603e913960400191505060405180910390fd5b6001600160a01b0382166119905760405162461bcd60e51b815260040180806020018281038252603c8152602001806121bf603c913960400191505060405180910390fd5b6001600160a01b0383166000908152600460209081526040918290205482516060810190935260388084526119e0936bffffffffffffffffffffffff90921692859291906121629083013961188f565b6001600160a01b03848116600090815260046020908152604080832080547fffffffffffffffffffffffffffffffffffffffff000000000000000000000000166bffffffffffffffffffffffff968716179055928616825290829020548251606081019093526032808452611a65949190911692859290919061210990830139611b7d565b6001600160a01b0383811660008181526004602090815260409182902080547fffffffffffffffffffffffffffffffffffffffff000000000000000000000000166bffffffffffffffffffffffff9687161790558151948616855290519193928716927fddf252ad1be2c89b69c2b068fc378daa952ba7f163c4a11628f55a4df523b3ef929081900390910190a36001600160a01b03808416600090815260056020526040808220548584168352912054610b5292918216911683611bec565b80820182811015610751576040805162461bcd60e51b815260206004820152601460248201527f64732d6d6174682d6164642d6f766572666c6f77000000000000000000000000604482015290519081900360640190fd5b6000838301826bffffffffffffffffffffffff8087169083161015611be35760405162461bcd60e51b815260206004820181815283516024840152835190928392604490910191908501908083836000831561184c578181015183820152602001611834565b50949350505050565b816001600160a01b0316836001600160a01b031614158015611c1c57506000816bffffffffffffffffffffffff16115b15610b52576001600160a01b03831615611cda576001600160a01b03831660009081526007602052604081205463ffffffff169081611c5c576000611ca1565b6001600160a01b0385166000908152600660209081526040808320600019860163ffffffff16845290915290205464010000000090046bffffffffffffffffffffffff165b90506000611cc882856040518060600160405280602a8152602001612460602a913961188f565b9050611cd686848484611e3a565b5050505b6001600160a01b03821615610b52576001600160a01b03821660009081526007602052604081205463ffffffff169081611d15576000611d5a565b6001600160a01b0384166000908152600660209081526040808320600019860163ffffffff16845290915290205464010000000090046bffffffffffffffffffffffff165b90506000611d81828560405180606001604052806029815260200161258760299139611b7d565b905061121785848484611e3a565b6001600160a01b03808316600081815260056020818152604080842080546004845282862054949093528787167fffffffffffffffffffffffff000000000000000000000000000000000000000084168117909155905191909516946bffffffffffffffffffffffff9092169391928592917f3134e8a2e6d97e929a7e54011ea5485d7d196dd5f0ba4d4ef95803e8e3fc257f9190a4611e30828483611bec565b50505050565b4690565b6000611e5e4360405180606001604052806036815260200161242a60369139612043565b905060008463ffffffff16118015611ea757506001600160a01b038516600090815260066020908152604080832063ffffffff6000198901811685529252909120548282169116145b15611f1b576001600160a01b0385166000908152600660209081526040808320600019880163ffffffff168452909152902080547fffffffffffffffffffffffffffffffff000000000000000000000000ffffffff166401000000006bffffffffffffffffffffffff851602179055611fea565b60408051808201825263ffffffff80841682526bffffffffffffffffffffffff80861660208085019182526001600160a01b038b166000818152600683528781208c871682528352878120965187549451909516640100000000027fffffffffffffffffffffffffffffffff000000000000000000000000ffffffff9587167fffffffffffffffffffffffffffffffffffffffffffffffffffffffff00000000958616179590951694909417909555938252600790935292909220805460018801909316929091169190911790555b604080516bffffffffffffffffffffffff80861682528416602082015281516001600160a01b038816927fdec2bacdd2f05b59de34da9b523dff8be42e5e38e818c82fdb0bae774387a724928290030190a25050505050565b60008164010000000084106118875760405162461bcd60e51b815260206004820181815283516024840152835190928392604490910191908501908083836000831561184c578181015183820152602001611834565b60408051808201909152600080825260208201529056fe4661697361613a3a6d696e743a2063616e6e6f74207472616e7366657220746f20746865207a65726f20616464726573734661697361613a3a6d696e743a207472616e7366657220616d6f756e74206f766572666c6f77734661697361613a3a5f7472616e73666572546f6b656e733a207472616e7366657220616d6f756e74206f766572666c6f77734661697361613a3a617070726f76653a20616d6f756e74206578636565647320393620626974734661697361613a3a5f7472616e73666572546f6b656e733a207472616e7366657220616d6f756e7420657863656564732062616c616e63654661697361613a3a6d696e743a206d696e74696e67206e6f7420616c6c6f776564207965744661697361613a3a5f7472616e73666572546f6b656e733a2063616e6e6f74207472616e7366657220746f20746865207a65726f20616464726573734661697361613a3a7065726d69743a207369676e617475726520657870697265644661697361613a3a7365744d696e7465723a206f6e6c7920746865206d696e7465722063616e206368616e676520746865206d696e74657220616464726573734661697361613a3a7472616e7366657246726f6d3a207472616e7366657220616d6f756e742065786365656473207370656e64657220616c6c6f77616e63655065726d69742861646472657373206f776e65722c61646472657373207370656e6465722c75696e743235362076616c75652c75696e74323536206e6f6e63652c75696e7432353620646561646c696e65294661697361613a3a5f7472616e73666572546f6b656e733a2063616e6e6f74207472616e736665722066726f6d20746865207a65726f20616464726573734661697361613a3a7065726d69743a20696e76616c6964207369676e6174757265454950373132446f6d61696e28737472696e67206e616d652c75696e7432353620636861696e49642c6164647265737320766572696679696e67436f6e7472616374294661697361613a3a6d696e743a20616d6f756e74206578636565647320393620626974734661697361613a3a6d696e743a20746f74616c537570706c79206578636565647320393620626974734661697361613a3a64656c656761746542795369673a207369676e617475726520657870697265644661697361613a3a7065726d69743a20616d6f756e74206578636565647320393620626974734661697361613a3a5f7772697465436865636b706f696e743a20626c6f636b206e756d626572206578636565647320333220626974734661697361613a3a5f6d6f7665566f7465733a20766f746520616d6f756e7420756e646572666c6f77734661697361613a3a7472616e736665723a20616d6f756e74206578636565647320393620626974734661697361613a3a64656c656761746542795369673a20696e76616c6964206e6f6e63654661697361613a3a6d696e743a206f6e6c7920746865206d696e7465722063616e206d696e744661697361613a3a6765745072696f72566f7465733a206e6f74207965742064657465726d696e656444656c65676174696f6e28616464726573732064656c6567617465652c75696e74323536206e6f6e63652c75696e7432353620657870697279294661697361613a3a64656c656761746542795369673a20696e76616c6964207369676e61747572654661697361613a3a5f6d6f7665566f7465733a20766f746520616d6f756e74206f766572666c6f7773a265627a7a72315820c6c82e8954a83d46d66e5f03ea04e74d22fcead4ce89dfe327f1cc733d108dc264736f6c634300051000324661697361613a3a636f6e7374727563746f723a206d696e74696e672063616e206f6e6c7920626567696e206166746572206465706c6f796d656e74",
  "linkReferences": {},
  "deployedLinkReferences": {}
}