{
  "_format": "hh-sol-artifact-1",
  "contractName": "UniswapV2Factory",
  "sourceName": "contracts/core/UniswapV2Factory.sol",
  "abi": [
    {
      "inputs": [
        {
          "internalType": "address",
          "name": "_feeToSetter",
          "type": "address"
        }
      ],
      "payable": false,
      "stateMutability": "nonpayable",
      "type": "constructor"
    },
    {
      "anonymous": false,
      "inputs": [
        {
          "indexed": true,
          "internalType": "address",
          "name": "token0",
          "type": "address"
        },
        {
          "indexed": true,
          "internalType": "address",
          "name": "token1",
          "type": "address"
        },
        {
          "indexed": false,
          "internalType": "address",
          "name": "pair",
          "type": "address"
        },
        {
          "indexed": false,
          "internalType": "uint256",
          "name": "",
          "type": "uint256"
        }
      ],
      "name": "PairCreated",
      "type": "event"
    },
    {
      "constant": true,
      "inputs": [],
      "name": "INIT_CODE_HASH",
      "outputs": [
        {
          "internalType": "bytes32",
          "name": "",
          "type": "bytes32"
        }
      ],
      "payable": false,
      "stateMutability": "view",
      "type": "function"
    },
    {
      "constant": true,
      "inputs": [
        {
          "internalType": "uint256",
          "name": "",
          "type": "uint256"
        }
      ],
      "name": "allPairs",
      "outputs": [
        {
          "internalType": "address",
          "name": "",
          "type": "address"
        }
      ],
      "payable": false,
      "stateMutability": "view",
      "type": "function"
    },
    {
      "constant": true,
      "inputs": [],
      "name": "allPairsLength",
      "outputs": [
        {
          "internalType": "uint256",
          "name": "",
          "type": "uint256"
        }
      ],
      "payable": false,
      "stateMutability": "view",
      "type": "function"
    },
    {
      "constant": false,
      "inputs": [
        {
          "internalType": "address",
          "name": "tokenA",
          "type": "address"
        },
        {
          "internalType": "address",
          "name": "tokenB",
          "type": "address"
        }
      ],
      "name": "createPair",
      "outputs": [
        {
          "internalType": "address",
          "name": "pair",
          "type": "address"
        }
      ],
      "payable": false,
      "stateMutability": "nonpayable",
      "type": "function"
    },
    {
      "constant": true,
      "inputs": [],
      "name": "feeTo",
      "outputs": [
        {
          "internalType": "address",
          "name": "",
          "type": "address"
        }
      ],
      "payable": false,
      "stateMutability": "view",
      "type": "function"
    },
    {
      "constant": true,
      "inputs": [],
      "name": "feeToGrowth",
      "outputs": [
        {
          "internalType": "address",
          "name": "",
          "type": "address"
        }
      ],
      "payable": false,
      "stateMutability": "view",
      "type": "function"
    },
    {
      "constant": true,
      "inputs": [],
      "name": "feeToSetter",
      "outputs": [
        {
          "internalType": "address",
          "name": "",
          "type": "address"
        }
      ],
      "payable": false,
      "stateMutability": "view",
      "type": "function"
    },
    {
      "constant": true,
      "inputs": [
        {
          "internalType": "address",
          "name": "",
          "type": "address"
        },
        {
          "internalType": "address",
          "name": "",
          "type": "address"
        }
      ],
      "name": "getPair",
      "outputs": [
        {
          "internalType": "address",
          "name": "",
          "type": "address"
        }
      ],
      "payable": false,
      "stateMutability": "view",
      "type": "function"
    },
    {
      "constant": false,
      "inputs": [
        {
          "internalType": "address",
          "name": "_feeTo",
          "type": "address"
        }
      ],
      "name": "setFeeTo",
      "outputs": [],
      "payable": false,
      "stateMutability": "nonpayable",
      "type": "function"
    },
    {
      "constant": false,
      "inputs": [
        {
          "internalType": "address",
          "name": "_feeToSetter",
          "type": "address"
        }
      ],
      "name": "setFeeToSetter",
      "outputs": [],
      "payable": false,
      "stateMutability": "nonpayable",
      "type": "function"
    },
    {
      "constant": false,
      "inputs": [
        {
          "internalType": "address",
          "name": "_feeToGrowth",
          "type": "address"
        }
      ],
      "name": "setfeeToGrowth",
      "outputs": [],
      "payable": false,
      "stateMutability": "nonpayable",
      "type": "function"
    }
  ],
  "bytecode": "0x608060405234801561001057600080fd5b506040516133443803806133448339818101604052602081101561003357600080fd5b5051600280546001600160a01b0319166001600160a01b039092169190911790556132e1806100636000396000f3fe608060405234801561001057600080fd5b50600436106100c95760003560e01c806383f01e0911610081578063cf8e9a701161005b578063cf8e9a70146101e9578063e6a43905146101f1578063f46901ed1461022c576100c9565b806383f01e0914610146578063a2e74af61461017b578063c9c65396146101ae576100c9565b80631e3dd18b116100b25780631e3dd18b14610107578063257671f514610124578063574f2ba31461013e576100c9565b8063017e7e58146100ce578063094b7415146100ff575b600080fd5b6100d661025f565b6040805173ffffffffffffffffffffffffffffffffffffffff9092168252519081900360200190f35b6100d661027b565b6100d66004803603602081101561011d57600080fd5b5035610297565b61012c6102cb565b60408051918252519081900360200190f35b61012c61037c565b6101796004803603602081101561015c57600080fd5b503573ffffffffffffffffffffffffffffffffffffffff16610382565b005b6101796004803603602081101561019157600080fd5b503573ffffffffffffffffffffffffffffffffffffffff1661044f565b6100d6600480360360408110156101c457600080fd5b5073ffffffffffffffffffffffffffffffffffffffff8135811691602001351661051c565b6100d661096f565b6100d66004803603604081101561020757600080fd5b5073ffffffffffffffffffffffffffffffffffffffff8135811691602001351661098b565b6101796004803603602081101561024257600080fd5b503573ffffffffffffffffffffffffffffffffffffffff166109be565b60005473ffffffffffffffffffffffffffffffffffffffff1681565b60025473ffffffffffffffffffffffffffffffffffffffff1681565b600481815481106102a457fe5b60009182526020909120015473ffffffffffffffffffffffffffffffffffffffff16905081565b6040516102da60208201610a8b565b6020820181038252601f19601f820116604052506040516020018082805190602001908083835b6020831061033e57805182527fffffffffffffffffffffffffffffffffffffffffffffffffffffffffffffffe09092019160209182019101610301565b6001836020036101000a0380198251168184511680821785525050505050509050019150506040516020818303038152906040528051906020012081565b60045490565b60025473ffffffffffffffffffffffffffffffffffffffff16331461040857604080517f08c379a000000000000000000000000000000000000000000000000000000000815260206004820152601460248201527f556e697377617056323a20464f5242494444454e000000000000000000000000604482015290519081900360640190fd5b600180547fffffffffffffffffffffffff00000000000000000000000000000000000000001673ffffffffffffffffffffffffffffffffffffffff92909216919091179055565b60025473ffffffffffffffffffffffffffffffffffffffff1633146104d557604080517f08c379a000000000000000000000000000000000000000000000000000000000815260206004820152601460248201527f556e697377617056323a20464f5242494444454e000000000000000000000000604482015290519081900360640190fd5b600280547fffffffffffffffffffffffff00000000000000000000000000000000000000001673ffffffffffffffffffffffffffffffffffffffff92909216919091179055565b60008173ffffffffffffffffffffffffffffffffffffffff168373ffffffffffffffffffffffffffffffffffffffff1614156105b957604080517f08c379a000000000000000000000000000000000000000000000000000000000815260206004820152601e60248201527f556e697377617056323a204944454e544943414c5f4144445245535345530000604482015290519081900360640190fd5b6000808373ffffffffffffffffffffffffffffffffffffffff168573ffffffffffffffffffffffffffffffffffffffff16106105f65783856105f9565b84845b909250905073ffffffffffffffffffffffffffffffffffffffff821661068057604080517f08c379a000000000000000000000000000000000000000000000000000000000815260206004820152601760248201527f556e697377617056323a205a45524f5f41444452455353000000000000000000604482015290519081900360640190fd5b73ffffffffffffffffffffffffffffffffffffffff82811660009081526003602090815260408083208585168452909152902054161561072157604080517f08c379a000000000000000000000000000000000000000000000000000000000815260206004820152601660248201527f556e697377617056323a20504149525f45584953545300000000000000000000604482015290519081900360640190fd5b60606040518060200161073390610a8b565b6020820181038252601f19601f82011660405250905060008383604051602001808373ffffffffffffffffffffffffffffffffffffffff1673ffffffffffffffffffffffffffffffffffffffff1660601b81526014018273ffffffffffffffffffffffffffffffffffffffff1673ffffffffffffffffffffffffffffffffffffffff1660601b815260140192505050604051602081830303815290604052805190602001209050808251602084016000f5604080517f485cc95500000000000000000000000000000000000000000000000000000000815273ffffffffffffffffffffffffffffffffffffffff8781166004830152868116602483015291519297509087169163485cc9559160448082019260009290919082900301818387803b15801561086057600080fd5b505af1158015610874573d6000803e3d6000fd5b5050505073ffffffffffffffffffffffffffffffffffffffff84811660008181526003602081815260408084208987168086529083528185208054978d167fffffffffffffffffffffffff000000000000000000000000000000000000000098891681179091559383528185208686528352818520805488168517905560048054600181018255958190527f8a35acfbc15ff81a39ae7d344fd709f28e8600b4aa8c65c6b64bfe7fe36bd19b90950180549097168417909655925483519283529082015281517f0d3648bd0f6ba80134a33ba9275ac585d9d315f0ad8355cddefde31afa28d0e9929181900390910190a35050505092915050565b60015473ffffffffffffffffffffffffffffffffffffffff1681565b600360209081526000928352604080842090915290825290205473ffffffffffffffffffffffffffffffffffffffff1681565b60025473ffffffffffffffffffffffffffffffffffffffff163314610a4457604080517f08c379a000000000000000000000000000000000000000000000000000000000815260206004820152601460248201527f556e697377617056323a20464f5242494444454e000000000000000000000000604482015290519081900360640190fd5b600080547fffffffffffffffffffffffff00000000000000000000000000000000000000001673ffffffffffffffffffffffffffffffffffffffff92909216919091179055565b61281480610a998339019056fe60806040526001600c5534801561001557600080fd5b5060405146908060526127c28239604080519182900360520182208282018252600f83526e2320a4a9a0a096a628102a37b5b2b760891b6020938401528151808301835260018152603160f81b908401528151808401919091527fa885ec3cd02ff009382037a91c156a0faddd8f452f1097eb41609c3f588ae97e818301527fc89efdaa54c0f20c7adf612882df0950f5a951637e0307cdcb4c672f298b8bc6606082015260808101949094523060a0808601919091528151808603909101815260c09094019052825192019190912060035550600580546001600160a01b031916331790556126b88061010a6000396000f3fe608060405234801561001057600080fd5b50600436106101b95760003560e01c80636a627842116100f9578063ba9a7a5611610097578063d21220a711610071578063d21220a71461054b578063d505accf14610553578063dd62ed3e146105a4578063fff6cae9146105d2576101b9565b8063ba9a7a5614610515578063bc25cf771461051d578063c45a015514610543576101b9565b80637ecebe00116100d35780637ecebe001461047c57806389afcb44146104a257806395d89b41146104e1578063a9059cbb146104e9576101b9565b80636a6278421461042857806370a082311461044e5780637464fc3d14610474576101b9565b806323b872dd116101665780633644e515116101405780633644e515146103e2578063485cc955146103ea5780635909c0d5146104185780635a3d549314610420576101b9565b806323b872dd1461038657806330adf81f146103bc578063313ce567146103c4576101b9565b8063095ea7b311610197578063095ea7b3146103085780630dfe16811461034857806318160ddd1461036c576101b9565b8063022c0d9f146101be57806306fdde031461024c5780630902f1ac146102c9575b600080fd5b61024a600480360360808110156101d457600080fd5b8135916020810135916001600160a01b03604083013516919081019060808101606082013564010000000081111561020b57600080fd5b82018360208201111561021d57600080fd5b8035906020019184600183028401116401000000008311171561023f57600080fd5b5090925090506105da565b005b610254610b6b565b6040805160208082528351818301528351919283929083019185019080838360005b8381101561028e578181015183820152602001610276565b50505050905090810190601f1680156102bb5780820380516001836020036101000a031916815260200191505b509250505060405180910390f35b6102d1610ba4565b604080516dffffffffffffffffffffffffffff948516815292909316602083015263ffffffff168183015290519081900360600190f35b6103346004803603604081101561031e57600080fd5b506001600160a01b038135169060200135610bf9565b604080519115158252519081900360200190f35b610350610c10565b604080516001600160a01b039092168252519081900360200190f35b610374610c1f565b60408051918252519081900360200190f35b6103346004803603606081101561039c57600080fd5b506001600160a01b03813581169160208101359091169060400135610c25565b610374610cdd565b6103cc610d01565b6040805160ff9092168252519081900360200190f35b610374610d06565b61024a6004803603604081101561040057600080fd5b506001600160a01b0381358116916020013516610d0c565b610374610db1565b610374610db7565b6103746004803603602081101561043e57600080fd5b50356001600160a01b0316610dbd565b6103746004803603602081101561046457600080fd5b50356001600160a01b03166110f7565b610374611109565b6103746004803603602081101561049257600080fd5b50356001600160a01b031661110f565b6104c8600480360360208110156104b857600080fd5b50356001600160a01b0316611121565b6040805192835260208301919091528051918290030190f35b6102546114e5565b610334600480360360408110156104ff57600080fd5b506001600160a01b03813516906020013561151e565b61037461152b565b61024a6004803603602081101561053357600080fd5b50356001600160a01b0316611531565b6103506116c1565b6103506116d0565b61024a600480360360e081101561056957600080fd5b506001600160a01b03813581169160208101359091169060408101359060608101359060ff6080820135169060a08101359060c001356116df565b610374600480360360408110156105ba57600080fd5b506001600160a01b0381358116916020013516611943565b61024a611960565b600c54600114610631576040805162461bcd60e51b815260206004820152601160248201527f556e697377617056323a204c4f434b4544000000000000000000000000000000604482015290519081900360640190fd5b6000600c55841515806106445750600084115b61067f5760405162461bcd60e51b81526004018080602001828103825260258152602001806125ca6025913960400191505060405180910390fd5b60008061068a610ba4565b5091509150816dffffffffffffffffffffffffffff16871080156106bd5750806dffffffffffffffffffffffffffff1686105b6106f85760405162461bcd60e51b81526004018080602001828103825260218152602001806126136021913960400191505060405180910390fd5b60065460075460009182916001600160a01b039182169190811690891682148015906107365750806001600160a01b0316896001600160a01b031614155b610787576040805162461bcd60e51b815260206004820152601560248201527f556e697377617056323a20494e56414c49445f544f0000000000000000000000604482015290519081900360640190fd5b8a1561079857610798828a8d611ae0565b89156107a9576107a9818a8c611ae0565b861561086457886001600160a01b03166310d1e85c338d8d8c8c6040518663ffffffff1660e01b815260040180866001600160a01b03166001600160a01b03168152602001858152602001848152602001806020018281038252848482818152602001925080828437600081840152601f19601f8201169050808301925050509650505050505050600060405180830381600087803b15801561084b57600080fd5b505af115801561085f573d6000803e3d6000fd5b505050505b604080516370a0823160e01b815230600482015290516001600160a01b038416916370a08231916024808301926020929190829003018186803b1580156108aa57600080fd5b505afa1580156108be573d6000803e3d6000fd5b505050506040513d60208110156108d457600080fd5b5051604080516370a0823160e01b815230600482015290519195506001600160a01b038316916370a0823191602480820192602092909190829003018186803b15801561092057600080fd5b505afa158015610934573d6000803e3d6000fd5b505050506040513d602081101561094a57600080fd5b5051925060009150506dffffffffffffffffffffffffffff85168a9003831161097457600061098a565b89856dffffffffffffffffffffffffffff160383035b9050600089856dffffffffffffffffffffffffffff160383116109ae5760006109c4565b89856dffffffffffffffffffffffffffff160383035b905060008211806109d55750600081115b610a105760405162461bcd60e51b81526004018080602001828103825260248152602001806125ef6024913960400191505060405180910390fd5b6000610a44610a2684602163ffffffff611cc616565b610a388761271063ffffffff611cc616565b9063ffffffff611d3216565b90506000610a5c610a2684602163ffffffff611cc616565b9050610a94620f4240610a886dffffffffffffffffffffffffffff8b8116908b1663ffffffff611cc616565b9063ffffffff611cc616565b610aa4838363ffffffff611cc616565b1015610af7576040805162461bcd60e51b815260206004820152600c60248201527f556e697377617056323a204b0000000000000000000000000000000000000000604482015290519081900360640190fd5b5050610b0584848888611d8a565b60408051838152602081018390528082018d9052606081018c905290516001600160a01b038b169133917fd78ad95fa46c994b6551d0da85fc275fe613ce37657fb8d5e3d130840159d8229181900360800190a350506001600c55505050505050505050565b6040518060400160405280600f81526020017f4641495341412d4c5020546f6b656e000000000000000000000000000000000081525081565b6008546dffffffffffffffffffffffffffff808216926e0100000000000000000000000000008304909116917c0100000000000000000000000000000000000000000000000000000000900463ffffffff1690565b6000610c0633848461202c565b5060015b92915050565b6006546001600160a01b031681565b60005481565b6001600160a01b03831660009081526002602090815260408083203384529091528120547fffffffffffffffffffffffffffffffffffffffffffffffffffffffffffffffff14610cc8576001600160a01b0384166000908152600260209081526040808320338452909152902054610ca3908363ffffffff611d3216565b6001600160a01b03851660009081526002602090815260408083203384529091529020555b610cd384848461208e565b5060019392505050565b7f6e71edae12b1b97f4d1f60370fef10105fa2faae0126114a169c64845d6126c981565b601281565b60035481565b6005546001600160a01b03163314610d6b576040805162461bcd60e51b815260206004820152601460248201527f556e697377617056323a20464f5242494444454e000000000000000000000000604482015290519081900360640190fd5b600680546001600160a01b039384167fffffffffffffffffffffffff00000000000000000000000000000000000000009182161790915560078054929093169116179055565b60095481565b600a5481565b6000600c54600114610e16576040805162461bcd60e51b815260206004820152601160248201527f556e697377617056323a204c4f434b4544000000000000000000000000000000604482015290519081900360640190fd5b6000600c81905580610e26610ba4565b50600654604080516370a0823160e01b815230600482015290519395509193506000926001600160a01b03909116916370a08231916024808301926020929190829003018186803b158015610e7a57600080fd5b505afa158015610e8e573d6000803e3d6000fd5b505050506040513d6020811015610ea457600080fd5b5051600754604080516370a0823160e01b815230600482015290519293506000926001600160a01b03909216916370a0823191602480820192602092909190829003018186803b158015610ef757600080fd5b505afa158015610f0b573d6000803e3d6000fd5b505050506040513d6020811015610f2157600080fd5b505190506000610f47836dffffffffffffffffffffffffffff871663ffffffff611d3216565b90506000610f6b836dffffffffffffffffffffffffffff871663ffffffff611d3216565b90506000610f798787612148565b60005490915080610fb657610fa26103e8610a38610f9d878763ffffffff611cc616565b61236e565b9850610fb160006103e86123c0565b611013565b6110106dffffffffffffffffffffffffffff8916610fda868463ffffffff611cc616565b81610fe157fe5b046dffffffffffffffffffffffffffff8916611003868563ffffffff611cc616565b8161100a57fe5b04612456565b98505b600089116110525760405162461bcd60e51b815260040180806020018281038252602881526020018061265c6028913960400191505060405180910390fd5b61105c8a8a6123c0565b61106886868a8a611d8a565b81156110aa576008546110a6906dffffffffffffffffffffffffffff808216916e01000000000000000000000000000090041663ffffffff611cc616565b600b555b6040805185815260208101859052815133927f4c209b5fc8ad50758f13e2e1088ba56a560dff690a1c6fef26394f4c03821c4f928290030190a250506001600c5550949695505050505050565b60016020526000908152604090205481565b600b5481565b60046020526000908152604090205481565b600080600c5460011461117b576040805162461bcd60e51b815260206004820152601160248201527f556e697377617056323a204c4f434b4544000000000000000000000000000000604482015290519081900360640190fd5b6000600c8190558061118b610ba4565b50600654600754604080516370a0823160e01b815230600482015290519496509294506001600160a01b039182169391169160009184916370a08231916024808301926020929190829003018186803b1580156111e757600080fd5b505afa1580156111fb573d6000803e3d6000fd5b505050506040513d602081101561121157600080fd5b5051604080516370a0823160e01b815230600482015290519192506000916001600160a01b038516916370a08231916024808301926020929190829003018186803b15801561125f57600080fd5b505afa158015611273573d6000803e3d6000fd5b505050506040513d602081101561128957600080fd5b5051306000908152600160205260408120549192506112a88888612148565b600054909150806112bf848763ffffffff611cc616565b816112c657fe5b049a50806112da848663ffffffff611cc616565b816112e157fe5b04995060008b1180156112f4575060008a115b61132f5760405162461bcd60e51b81526004018080602001828103825260288152602001806126346028913960400191505060405180910390fd5b611339308461246e565b611344878d8d611ae0565b61134f868d8c611ae0565b604080516370a0823160e01b815230600482015290516001600160a01b038916916370a08231916024808301926020929190829003018186803b15801561139557600080fd5b505afa1580156113a9573d6000803e3d6000fd5b505050506040513d60208110156113bf57600080fd5b5051604080516370a0823160e01b815230600482015290519196506001600160a01b038816916370a0823191602480820192602092909190829003018186803b15801561140b57600080fd5b505afa15801561141f573d6000803e3d6000fd5b505050506040513d602081101561143557600080fd5b5051935061144585858b8b611d8a565b811561148757600854611483906dffffffffffffffffffffffffffff808216916e01000000000000000000000000000090041663ffffffff611cc616565b600b555b604080518c8152602081018c905281516001600160a01b038f169233927fdccd412f0b1252819cb1fd330b93224ca42612892bb3f4f789976e6d81936496929081900390910190a35050505050505050506001600c81905550915091565b6040518060400160405280600981526020017f4641495341412d4c50000000000000000000000000000000000000000000000081525081565b6000610c0633848461208e565b6103e881565b600c54600114611588576040805162461bcd60e51b815260206004820152601160248201527f556e697377617056323a204c4f434b4544000000000000000000000000000000604482015290519081900360640190fd5b6000600c55600654600754600854604080516370a0823160e01b815230600482015290516001600160a01b03948516949093169261163e9285928792611639926dffffffffffffffffffffffffffff169185916370a0823191602480820192602092909190829003018186803b15801561160157600080fd5b505afa158015611615573d6000803e3d6000fd5b505050506040513d602081101561162b57600080fd5b50519063ffffffff611d3216565b611ae0565b600854604080516370a0823160e01b815230600482015290516116b79284928792611639926e01000000000000000000000000000090046dffffffffffffffffffffffffffff16916001600160a01b038616916370a0823191602480820192602092909190829003018186803b15801561160157600080fd5b50506001600c5550565b6005546001600160a01b031681565b6007546001600160a01b031681565b42841015611734576040805162461bcd60e51b815260206004820152601260248201527f556e697377617056323a20455850495245440000000000000000000000000000604482015290519081900360640190fd5b6003546001600160a01b0380891660008181526004602090815260408083208054600180820190925582517f6e71edae12b1b97f4d1f60370fef10105fa2faae0126114a169c64845d6126c98186015280840196909652958d166060860152608085018c905260a085019590955260c08085018b90528151808603909101815260e0850182528051908301207f19010000000000000000000000000000000000000000000000000000000000006101008601526101028501969096526101228085019690965280518085039096018652610142840180825286519683019690962095839052610162840180825286905260ff89166101828501526101a284018890526101c28401879052519193926101e2808201937fffffffffffffffffffffffffffffffffffffffffffffffffffffffffffffffe081019281900390910190855afa158015611888573d6000803e3d6000fd5b50506040517fffffffffffffffffffffffffffffffffffffffffffffffffffffffffffffffe001519150506001600160a01b038116158015906118dc5750886001600160a01b0316816001600160a01b0316145b61192d576040805162461bcd60e51b815260206004820152601c60248201527f556e697377617056323a20494e56414c49445f5349474e415455524500000000604482015290519081900360640190fd5b61193889898961202c565b505050505050505050565b600260209081526000928352604080842090915290825290205481565b600c546001146119b7576040805162461bcd60e51b815260206004820152601160248201527f556e697377617056323a204c4f434b4544000000000000000000000000000000604482015290519081900360640190fd5b6000600c55600654604080516370a0823160e01b81523060048201529051611ad9926001600160a01b0316916370a08231916024808301926020929190829003018186803b158015611a0857600080fd5b505afa158015611a1c573d6000803e3d6000fd5b505050506040513d6020811015611a3257600080fd5b5051600754604080516370a0823160e01b815230600482015290516001600160a01b03909216916370a0823191602480820192602092909190829003018186803b158015611a7f57600080fd5b505afa158015611a93573d6000803e3d6000fd5b505050506040513d6020811015611aa957600080fd5b50516008546dffffffffffffffffffffffffffff808216916e010000000000000000000000000000900416611d8a565b6001600c55565b604080518082018252601981527f7472616e7366657228616464726573732c75696e74323536290000000000000060209182015281516001600160a01b0385811660248301526044808301869052845180840390910181526064909201845291810180517bffffffffffffffffffffffffffffffffffffffffffffffffffffffff167fa9059cbb000000000000000000000000000000000000000000000000000000001781529251815160009460609489169392918291908083835b60208310611bd957805182527fffffffffffffffffffffffffffffffffffffffffffffffffffffffffffffffe09092019160209182019101611b9c565b6001836020036101000a0380198251168184511680821785525050505050509050019150506000604051808303816000865af19150503d8060008114611c3b576040519150601f19603f3d011682016040523d82523d6000602084013e611c40565b606091505b5091509150818015611c6e575080511580611c6e5750808060200190516020811015611c6b57600080fd5b50515b611cbf576040805162461bcd60e51b815260206004820152601a60248201527f556e697377617056323a205452414e534645525f4641494c4544000000000000604482015290519081900360640190fd5b5050505050565b6000811580611ce157505080820282828281611cde57fe5b04145b610c0a576040805162461bcd60e51b815260206004820152601460248201527f64732d6d6174682d6d756c2d6f766572666c6f77000000000000000000000000604482015290519081900360640190fd5b80820382811115610c0a576040805162461bcd60e51b815260206004820152601560248201527f64732d6d6174682d7375622d756e646572666c6f770000000000000000000000604482015290519081900360640190fd5b6dffffffffffffffffffffffffffff8411801590611db657506dffffffffffffffffffffffffffff8311155b611e07576040805162461bcd60e51b815260206004820152601360248201527f556e697377617056323a204f564552464c4f5700000000000000000000000000604482015290519081900360640190fd5b60085463ffffffff428116917c010000000000000000000000000000000000000000000000000000000090048116820390811615801590611e5757506dffffffffffffffffffffffffffff841615155b8015611e7257506dffffffffffffffffffffffffffff831615155b15611f22578063ffffffff16611eb585611e8b8661250c565b7bffffffffffffffffffffffffffffffffffffffffffffffffffffffff169063ffffffff61253016565b600980547bffffffffffffffffffffffffffffffffffffffffffffffffffffffff929092169290920201905563ffffffff8116611ef584611e8b8761250c565b600a80547bffffffffffffffffffffffffffffffffffffffffffffffffffffffff92909216929092020190555b600880547fffffffffffffffffffffffffffffffffffff0000000000000000000000000000166dffffffffffffffffffffffffffff888116919091177fffffffff0000000000000000000000000000ffffffffffffffffffffffffffff166e0100000000000000000000000000008883168102919091177bffffffffffffffffffffffffffffffffffffffffffffffffffffffff167c010000000000000000000000000000000000000000000000000000000063ffffffff871602179283905560408051848416815291909304909116602082015281517f1c411e9a96e071241c2f21f7726b17ae89e3cab4c78be50e062b03a9fffbbad1929181900390910190a1505050505050565b6001600160a01b03808416600081815260026020908152604080832094871680845294825291829020859055815185815291517f8c5be1e5ebec7d5bd14f71427d1e84f3dd0314c0f7b2291e5b200ac8c7c3b9259281900390910190a3505050565b6001600160a01b0383166000908152600160205260409020546120b7908263ffffffff611d3216565b6001600160a01b0380851660009081526001602052604080822093909355908416815220546120ec908263ffffffff61257116565b6001600160a01b0380841660008181526001602090815260409182902094909455805185815290519193928716927fddf252ad1be2c89b69c2b068fc378daa952ba7f163c4a11628f55a4df523b3ef92918290030190a3505050565b600080600560009054906101000a90046001600160a01b03166001600160a01b031663017e7e586040518163ffffffff1660e01b815260040160206040518083038186803b15801561219957600080fd5b505afa1580156121ad573d6000803e3d6000fd5b505050506040513d60208110156121c357600080fd5b5051600554604080517fcf8e9a7000000000000000000000000000000000000000000000000000000000815290519293506000926001600160a01b039092169163cf8e9a7091600480820192602092909190829003018186803b15801561222957600080fd5b505afa15801561223d573d6000803e3d6000fd5b505050506040513d602081101561225357600080fd5b5051600b546001600160a01b03841615801595509192509061235957801561235457600061229d610f9d6dffffffffffffffffffffffffffff89811690891663ffffffff611cc616565b905060006122aa8361236e565b9050808211156123515760006122d86122c9848463ffffffff611d3216565b6000549063ffffffff611cc616565b905060006122fd836122f186600a63ffffffff611cc616565b9063ffffffff61257116565b9050600081838161230a57fe5b049050801561234d576001600160a01b0387166123305761232b88826123c0565b61234d565b6003810461234189600283026123c0565b61234b88826123c0565b505b5050505b50505b612365565b8015612365576000600b555b50505092915050565b600060038211156123b1575080600160028204015b818110156123ab5780915060028182858161239a57fe5b0401816123a357fe5b049050612383565b506123bb565b81156123bb575060015b919050565b6000546123d3908263ffffffff61257116565b60009081556001600160a01b0383168152600160205260409020546123fe908263ffffffff61257116565b6001600160a01b03831660008181526001602090815260408083209490945583518581529351929391927fddf252ad1be2c89b69c2b068fc378daa952ba7f163c4a11628f55a4df523b3ef9281900390910190a35050565b60008183106124655781612467565b825b9392505050565b6001600160a01b038216600090815260016020526040902054612497908263ffffffff611d3216565b6001600160a01b038316600090815260016020526040812091909155546124c4908263ffffffff611d3216565b60009081556040805183815290516001600160a01b038516917fddf252ad1be2c89b69c2b068fc378daa952ba7f163c4a11628f55a4df523b3ef919081900360200190a35050565b6dffffffffffffffffffffffffffff166e0100000000000000000000000000000290565b60006dffffffffffffffffffffffffffff82167bffffffffffffffffffffffffffffffffffffffffffffffffffffffff84168161256957fe5b049392505050565b80820182811015610c0a576040805162461bcd60e51b815260206004820152601460248201527f64732d6d6174682d6164642d6f766572666c6f77000000000000000000000000604482015290519081900360640190fdfe556e697377617056323a20494e53554646494349454e545f4f55545055545f414d4f554e54556e697377617056323a20494e53554646494349454e545f494e5055545f414d4f554e54556e697377617056323a20494e53554646494349454e545f4c4951554944495459556e697377617056323a20494e53554646494349454e545f4c49515549444954595f4255524e4544556e697377617056323a20494e53554646494349454e545f4c49515549444954595f4d494e544544a265627a7a723158205763e8a1223ac42578f2874ea27ad1157ee8089d186326175a6e0ed86bf0fc3f64736f6c63430005100032454950373132446f6d61696e28737472696e67206e616d652c737472696e672076657273696f6e2c75696e7432353620636861696e49642c6164647265737320766572696679696e67436f6e747261637429a265627a7a7231582029012d4f203a66ffcf5e2f1113425301a609e361a1b29d2e3d5aa3ad1f51a75c64736f6c63430005100032",
  "linkReferences": {},
  "deployedLinkReferences": {}
}